{
  "contractName": "QuizCoin",
  "abi": [
    {
      "inputs": [],
      "payable": false,
      "stateMutability": "nonpayable",
      "type": "constructor"
    },
    {
      "anonymous": false,
      "inputs": [
        {
          "indexed": false,
          "internalType": "uint256",
          "name": "idQuiz",
          "type": "uint256"
        },
        {
          "indexed": false,
          "internalType": "uint256",
          "name": "endQuizDate",
          "type": "uint256"
        },
        {
          "indexed": false,
          "internalType": "string",
          "name": "question",
          "type": "string"
        },
        {
          "indexed": false,
          "internalType": "string",
          "name": "goodChoice",
          "type": "string"
        },
        {
          "indexed": false,
          "internalType": "string",
          "name": "choice2",
          "type": "string"
        },
        {
          "indexed": false,
          "internalType": "string",
          "name": "choice3",
          "type": "string"
        },
        {
          "indexed": false,
          "internalType": "uint256",
          "name": "uploadTime",
          "type": "uint256"
        },
        {
          "indexed": false,
          "internalType": "address payable",
          "name": "author",
          "type": "address"
        }
      ],
      "name": "QuizCreated",
      "type": "event"
    },
    {
      "anonymous": false,
      "inputs": [
        {
          "indexed": false,
          "internalType": "uint256",
          "name": "idQuiz",
          "type": "uint256"
        },
        {
          "indexed": false,
          "internalType": "uint256",
          "name": "endQuizDate",
          "type": "uint256"
        },
        {
          "indexed": false,
          "internalType": "string",
          "name": "question",
          "type": "string"
        },
        {
          "indexed": false,
          "internalType": "string",
          "name": "goodChoice",
          "type": "string"
        },
        {
          "indexed": false,
          "internalType": "string",
          "name": "choice2",
          "type": "string"
        },
        {
          "indexed": false,
          "internalType": "string",
          "name": "choice3",
          "type": "string"
        },
        {
          "indexed": false,
          "internalType": "uint256",
          "name": "uploadTime",
          "type": "uint256"
        },
        {
          "indexed": false,
          "internalType": "address payable",
          "name": "author",
          "type": "address"
        }
      ],
      "name": "QuizSend",
      "type": "event"
    },
    {
      "constant": true,
      "inputs": [],
      "name": "name",
      "outputs": [
        {
          "internalType": "string",
          "name": "",
          "type": "string"
        }
      ],
      "payable": false,
      "stateMutability": "view",
      "type": "function"
    },
    {
      "constant": true,
      "inputs": [],
      "name": "quizCount",
      "outputs": [
        {
          "internalType": "uint256",
          "name": "",
          "type": "uint256"
        }
      ],
      "payable": false,
      "stateMutability": "view",
      "type": "function"
    },
    {
      "constant": true,
      "inputs": [
        {
          "internalType": "uint256",
          "name": "",
          "type": "uint256"
        }
      ],
      "name": "quizzes",
      "outputs": [
        {
          "internalType": "uint256",
          "name": "idQuiz",
          "type": "uint256"
        },
        {
          "internalType": "uint256",
          "name": "endQuizDate",
          "type": "uint256"
        },
        {
          "internalType": "string",
          "name": "question",
          "type": "string"
        },
        {
          "internalType": "string",
          "name": "goodChoice",
          "type": "string"
        },
        {
          "internalType": "string",
          "name": "choice2",
          "type": "string"
        },
        {
          "internalType": "string",
          "name": "choice3",
          "type": "string"
        },
        {
          "internalType": "uint256",
          "name": "uploadTime",
          "type": "uint256"
        },
        {
          "internalType": "address payable",
          "name": "author",
          "type": "address"
        }
      ],
      "payable": false,
      "stateMutability": "view",
      "type": "function"
    },
    {
      "constant": false,
      "inputs": [
        {
          "internalType": "uint256",
          "name": "_endQuizDate",
          "type": "uint256"
        },
        {
          "internalType": "string",
          "name": "_question",
          "type": "string"
        },
        {
          "internalType": "string",
          "name": "_goodChoice",
          "type": "string"
        },
        {
          "internalType": "string",
          "name": "_choice2",
          "type": "string"
        },
        {
          "internalType": "string",
          "name": "_choice3",
          "type": "string"
        }
      ],
      "name": "createQuiz",
      "outputs": [],
      "payable": false,
      "stateMutability": "nonpayable",
      "type": "function"
    },
    {
      "constant": false,
      "inputs": [
        {
          "internalType": "uint256",
          "name": "_id",
          "type": "uint256"
        }
      ],
      "name": "sendChoice",
      "outputs": [],
      "payable": true,
      "stateMutability": "payable",
      "type": "function"
    },
    {
      "constant": false,
      "inputs": [
        {
          "internalType": "uint256",
          "name": "_id",
          "type": "uint256"
        }
      ],
      "name": "endQuiz",
      "outputs": [],
      "payable": false,
      "stateMutability": "nonpayable",
      "type": "function"
    }
  ],
  "bytecode": "0x60806040526040518060400160405280600981526020017f5175697a20436f696e00000000000000000000000000000000000000000000008152506001908051906020019062000051929190620000b2565b5060006002553480156200006457600080fd5b5042600581905550336000806101000a81548173ffffffffffffffffffffffffffffffffffffffff021916908373ffffffffffffffffffffffffffffffffffffffff16021790555062000161565b828054600181600116156101000203166002900490600052602060002090601f016020900481019282601f10620000f557805160ff191683800117855562000126565b8280016001018555821562000126579182015b828111156200012557825182559160200191906001019062000108565b5b50905062000135919062000139565b5090565b6200015e91905b808211156200015a57600081600090555060010162000140565b5090565b90565b611f9380620001716000396000f3fe6080604052600436106100555760003560e01c806306fdde031461005a5780632e8497cf146100ea578063752b618a1461011557806388409afa146103ac57806390c588e4146105ec5780639a17ca2314610627575b600080fd5b34801561006657600080fd5b5061006f610655565b6040518080602001828103825283818151815260200191508051906020019080838360005b838110156100af578082015181840152602081019050610094565b50505050905090810190601f1680156100dc5780820380516001836020036101000a031916815260200191505b509250505060405180910390f35b3480156100f657600080fd5b506100ff6106f3565b6040518082815260200191505060405180910390f35b34801561012157600080fd5b506103aa600480360360a081101561013857600080fd5b81019080803590602001909291908035906020019064010000000081111561015f57600080fd5b82018360208201111561017157600080fd5b8035906020019184600183028401116401000000008311171561019357600080fd5b91908080601f016020809104026020016040519081016040528093929190818152602001838380828437600081840152601f19601f820116905080830192505050505050509192919290803590602001906401000000008111156101f657600080fd5b82018360208201111561020857600080fd5b8035906020019184600183028401116401000000008311171561022a57600080fd5b91908080601f016020809104026020016040519081016040528093929190818152602001838380828437600081840152601f19601f8201169050808301925050505050505091929192908035906020019064010000000081111561028d57600080fd5b82018360208201111561029f57600080fd5b803590602001918460018302840111640100000000831117156102c157600080fd5b91908080601f016020809104026020016040519081016040528093929190818152602001838380828437600081840152601f19601f8201169050808301925050505050505091929192908035906020019064010000000081111561032457600080fd5b82018360208201111561033657600080fd5b8035906020019184600183028401116401000000008311171561035857600080fd5b91908080601f016020809104026020016040519081016040528093929190818152602001838380828437600081840152601f19601f8201169050808301925050505050505091929192905050506106f9565b005b3480156103b857600080fd5b506103e5600480360360208110156103cf57600080fd5b8101908080359060200190929190505050610b7a565b60405180898152602001888152602001806020018060200180602001806020018781526020018673ffffffffffffffffffffffffffffffffffffffff1673ffffffffffffffffffffffffffffffffffffffff16815260200185810385528b818151815260200191508051906020019080838360005b8381101561047557808201518184015260208101905061045a565b50505050905090810190601f1680156104a25780820380516001836020036101000a031916815260200191505b5085810384528a818151815260200191508051906020019080838360005b838110156104db5780820151818401526020810190506104c0565b50505050905090810190601f1680156105085780820380516001836020036101000a031916815260200191505b50858103835289818151815260200191508051906020019080838360005b83811015610541578082015181840152602081019050610526565b50505050905090810190601f16801561056e5780820380516001836020036101000a031916815260200191505b50858103825288818151815260200191508051906020019080838360005b838110156105a757808201518184015260208101905061058c565b50505050905090810190601f1680156105d45780820380516001836020036101000a031916815260200191505b509c5050505050505050505050505060405180910390f35b3480156105f857600080fd5b506106256004803603602081101561060f57600080fd5b8101908080359060200190929190505050610e42565b005b6106536004803603602081101561063d57600080fd5b81019080803590602001909291905050506112e0565b005b60018054600181600116156101000203166002900480601f0160208091040260200160405190810160405280929190818152602001828054600181600116156101000203166002900480156106eb5780601f106106c0576101008083540402835291602001916106eb565b820191906000526020600020905b8154815290600101906020018083116106ce57829003601f168201915b505050505081565b60025481565b6000851161070657600080fd5b600084511161071457600080fd5b600083511161072257600080fd5b600082511161073057600080fd5b600081511161073e57600080fd5b4285116107b3576040517f08c379a00000000000000000000000000000000000000000000000000000000081526004018080602001828103825260208152602001807f6461746520616e74c3a9726965757220612063656c6c65206475206a6f75727381525060200191505060405180910390fd5b600073ffffffffffffffffffffffffffffffffffffffff163373ffffffffffffffffffffffffffffffffffffffff1614156107ed57600080fd5b60026000815480929190600101919050555060405180610100016040528060025481526020018681526020018581526020018481526020018381526020018281526020014281526020013373ffffffffffffffffffffffffffffffffffffffff1681525060036000600254815260200190815260200160002060008201518160000155602082015181600101556040820151816002019080519060200190610896929190611e15565b5060608201518160030190805190602001906108b3929190611e15565b5060808201518160040190805190602001906108d0929190611e15565b5060a08201518160050190805190602001906108ed929190611e15565b5060c0820151816006015560e08201518160070160006101000a81548173ffffffffffffffffffffffffffffffffffffffff021916908373ffffffffffffffffffffffffffffffffffffffff1602179055509050507f9861e31e8cd639daa29365b7fe3a851c33e0c0d8c95f9ad7e555237d3e940ef36002548686868686423360405180898152602001888152602001806020018060200180602001806020018781526020018673ffffffffffffffffffffffffffffffffffffffff1673ffffffffffffffffffffffffffffffffffffffff16815260200185810385528b818151815260200191508051906020019080838360005b838110156109fd5780820151818401526020810190506109e2565b50505050905090810190601f168015610a2a5780820380516001836020036101000a031916815260200191505b5085810384528a818151815260200191508051906020019080838360005b83811015610a63578082015181840152602081019050610a48565b50505050905090810190601f168015610a905780820380516001836020036101000a031916815260200191505b50858103835289818151815260200191508051906020019080838360005b83811015610ac9578082015181840152602081019050610aae565b50505050905090810190601f168015610af65780820380516001836020036101000a031916815260200191505b50858103825288818151815260200191508051906020019080838360005b83811015610b2f578082015181840152602081019050610b14565b50505050905090810190601f168015610b5c5780820380516001836020036101000a031916815260200191505b509c5050505050505050505050505060405180910390a15050505050565b6003602052806000526040600020600091509050806000015490806001015490806002018054600181600116156101000203166002900480601f016020809104026020016040519081016040528092919081815260200182805460018160011615610100020316600290048015610c325780601f10610c0757610100808354040283529160200191610c32565b820191906000526020600020905b815481529060010190602001808311610c1557829003601f168201915b505050505090806003018054600181600116156101000203166002900480601f016020809104026020016040519081016040528092919081815260200182805460018160011615610100020316600290048015610cd05780601f10610ca557610100808354040283529160200191610cd0565b820191906000526020600020905b815481529060010190602001808311610cb357829003601f168201915b505050505090806004018054600181600116156101000203166002900480601f016020809104026020016040519081016040528092919081815260200182805460018160011615610100020316600290048015610d6e5780601f10610d4357610100808354040283529160200191610d6e565b820191906000526020600020905b815481529060010190602001808311610d5157829003601f168201915b505050505090806005018054600181600116156101000203166002900480601f016020809104026020016040519081016040528092919081815260200182805460018160011615610100020316600290048015610e0c5780601f10610de157610100808354040283529160200191610e0c565b820191906000526020600020905b815481529060010190602001808311610def57829003601f168201915b5050505050908060060154908060070160009054906101000a900473ffffffffffffffffffffffffffffffffffffffff16905088565b6000809054906101000a900473ffffffffffffffffffffffffffffffffffffffff1673ffffffffffffffffffffffffffffffffffffffff163373ffffffffffffffffffffffffffffffffffffffff1614610ee7576040517f08c379a0000000000000000000000000000000000000000000000000000000008152600401808060200182810382526022815260200180611f3d6022913960400191505060405180910390fd5b80600081118015610efa57506002548111155b610f0357600080fd5b610f0b611e95565b60036000838152602001908152602001600020604051806101000160405290816000820154815260200160018201548152602001600282018054600181600116156101000203166002900480601f016020809104026020016040519081016040528092919081815260200182805460018160011615610100020316600290048015610fd75780601f10610fac57610100808354040283529160200191610fd7565b820191906000526020600020905b815481529060010190602001808311610fba57829003601f168201915b50505050508152602001600382018054600181600116156101000203166002900480601f0160208091040260200160405190810160405280929190818152602001828054600181600116156101000203166002900480156110795780601f1061104e57610100808354040283529160200191611079565b820191906000526020600020905b81548152906001019060200180831161105c57829003601f168201915b50505050508152602001600482018054600181600116156101000203166002900480601f01602080910402602001604051908101604052809291908181526020018280546001816001161561010002031660029004801561111b5780601f106110f05761010080835404028352916020019161111b565b820191906000526020600020905b8154815290600101906020018083116110fe57829003601f168201915b50505050508152602001600582018054600181600116156101000203166002900480601f0160208091040260200160405190810160405280929190818152602001828054600181600116156101000203166002900480156111bd5780601f10611192576101008083540402835291602001916111bd565b820191906000526020600020905b8154815290600101906020018083116111a057829003601f168201915b50505050508152602001600682015481526020016007820160009054906101000a900473ffffffffffffffffffffffffffffffffffffffff1673ffffffffffffffffffffffffffffffffffffffff1673ffffffffffffffffffffffffffffffffffffffff168152505090508060200151600554420310156112a6576040517f08c379a00000000000000000000000000000000000000000000000000000000081526004018080602001828103825260198152602001807f4c65207175657374696f6e6e61697265206573742066696e690000000000000081525060200191505060405180910390fd5b6000809054906101000a900473ffffffffffffffffffffffffffffffffffffffff1673ffffffffffffffffffffffffffffffffffffffff16ff5b600460003373ffffffffffffffffffffffffffffffffffffffff1673ffffffffffffffffffffffffffffffffffffffff16815260200190815260200160002060009054906101000a900460ff16156113a0576040517f08c379a00000000000000000000000000000000000000000000000000000000081526004018080602001828103825260198152602001807f566f7573206176657a2064c3a96ac3a02072c3a9706f6e64750000000000000081525060200191505060405180910390fd5b806000811180156113b357506002548111155b6113bc57600080fd5b6113c4611e95565b60036000838152602001908152602001600020604051806101000160405290816000820154815260200160018201548152602001600282018054600181600116156101000203166002900480601f0160208091040260200160405190810160405280929190818152602001828054600181600116156101000203166002900480156114905780601f1061146557610100808354040283529160200191611490565b820191906000526020600020905b81548152906001019060200180831161147357829003601f168201915b50505050508152602001600382018054600181600116156101000203166002900480601f0160208091040260200160405190810160405280929190818152602001828054600181600116156101000203166002900480156115325780601f1061150757610100808354040283529160200191611532565b820191906000526020600020905b81548152906001019060200180831161151557829003601f168201915b50505050508152602001600482018054600181600116156101000203166002900480601f0160208091040260200160405190810160405280929190818152602001828054600181600116156101000203166002900480156115d45780601f106115a9576101008083540402835291602001916115d4565b820191906000526020600020905b8154815290600101906020018083116115b757829003601f168201915b50505050508152602001600582018054600181600116156101000203166002900480601f0160208091040260200160405190810160405280929190818152602001828054600181600116156101000203166002900480156116765780601f1061164b57610100808354040283529160200191611676565b820191906000526020600020905b81548152906001019060200180831161165957829003601f168201915b50505050508152602001600682015481526020016007820160009054906101000a900473ffffffffffffffffffffffffffffffffffffffff1673ffffffffffffffffffffffffffffffffffffffff1673ffffffffffffffffffffffffffffffffffffffff168152505090508060200151600554420310611741576040517f08c379a0000000000000000000000000000000000000000000000000000000008152600401808060200182810382526027815260200180611f166027913960400191505060405180910390fd5b60008311801561175357506002548311155b61175c57600080fd5b611764611e95565b60036000858152602001908152602001600020604051806101000160405290816000820154815260200160018201548152602001600282018054600181600116156101000203166002900480601f0160208091040260200160405190810160405280929190818152602001828054600181600116156101000203166002900480156118305780601f1061180557610100808354040283529160200191611830565b820191906000526020600020905b81548152906001019060200180831161181357829003601f168201915b50505050508152602001600382018054600181600116156101000203166002900480601f0160208091040260200160405190810160405280929190818152602001828054600181600116156101000203166002900480156118d25780601f106118a7576101008083540402835291602001916118d2565b820191906000526020600020905b8154815290600101906020018083116118b557829003601f168201915b50505050508152602001600482018054600181600116156101000203166002900480601f0160208091040260200160405190810160405280929190818152602001828054600181600116156101000203166002900480156119745780601f1061194957610100808354040283529160200191611974565b820191906000526020600020905b81548152906001019060200180831161195757829003601f168201915b50505050508152602001600582018054600181600116156101000203166002900480601f016020809104026020016040519081016040528092919081815260200182805460018160011615610100020316600290048015611a165780601f106119eb57610100808354040283529160200191611a16565b820191906000526020600020905b8154815290600101906020018083116119f957829003601f168201915b50505050508152602001600682015481526020016007820160009054906101000a900473ffffffffffffffffffffffffffffffffffffffff1673ffffffffffffffffffffffffffffffffffffffff1673ffffffffffffffffffffffffffffffffffffffff1681525050905060008160e00151905060003390508173ffffffffffffffffffffffffffffffffffffffff166108fc349081150290604051600060405180830381858888f19350505050158015611ad5573d6000803e3d6000fd5b50826003600088815260200190815260200160002060008201518160000155602082015181600101556040820151816002019080519060200190611b1a929190611e15565b506060820151816003019080519060200190611b37929190611e15565b506080820151816004019080519060200190611b54929190611e15565b5060a0820151816005019080519060200190611b71929190611e15565b5060c0820151816006015560e08201518160070160006101000a81548173ffffffffffffffffffffffffffffffffffffffff021916908373ffffffffffffffffffffffffffffffffffffffff1602179055509050507fd7ae1f6eb66a7d6eefc725dc68be59d948fa0a7e74a98682a29dce049d99f53d8684602001518560400151866060015187608001518860a001518960c001518960405180898152602001888152602001806020018060200180602001806020018781526020018673ffffffffffffffffffffffffffffffffffffffff1673ffffffffffffffffffffffffffffffffffffffff16815260200185810385528b818151815260200191508051906020019080838360005b83811015611c97578082015181840152602081019050611c7c565b50505050905090810190601f168015611cc45780820380516001836020036101000a031916815260200191505b5085810384528a818151815260200191508051906020019080838360005b83811015611cfd578082015181840152602081019050611ce2565b50505050905090810190601f168015611d2a5780820380516001836020036101000a031916815260200191505b50858103835289818151815260200191508051906020019080838360005b83811015611d63578082015181840152602081019050611d48565b50505050905090810190601f168015611d905780820380516001836020036101000a031916815260200191505b50858103825288818151815260200191508051906020019080838360005b83811015611dc9578082015181840152602081019050611dae565b50505050905090810190601f168015611df65780820380516001836020036101000a031916815260200191505b509c5050505050505050505050505060405180910390a1505050505050565b828054600181600116156101000203166002900490600052602060002090601f016020900481019282601f10611e5657805160ff1916838001178555611e84565b82800160010185558215611e84579182015b82811115611e83578251825591602001919060010190611e68565b5b509050611e919190611ef0565b5090565b60405180610100016040528060008152602001600081526020016060815260200160608152602001606081526020016060815260200160008152602001600073ffffffffffffffffffffffffffffffffffffffff1681525090565b611f1291905b80821115611f0e576000816000905550600101611ef6565b5090565b9056fe4c65207175657374696f6e6e6169726520206e276573742070617320656e636f72652066696e694f6e6c79206f776e65722063616e2063616c6c20746869732066756e6374696f6e2ea265627a7a72315820cf5f940e9beee0e62675b47713843c31697eb50d5ae3e787abe373d075e5237e64736f6c63430005100032",
  "source": "pragma solidity ^0.5.16;\n//pragma experimental ABIEncoderV2;\n\ncontract QuizCoin {\n    address payable owner;\n    string public name = \"Quiz Coin\";\n    uint public quizCount = 0;\n    //store quiz\n    mapping(uint => Quiz) public quizzes;\n    // Adresses ayant rpondu\n    mapping(address => bool) answered;\n    //question begin\n    uint begin;\n\n    struct Quiz {\n        uint idQuiz;\n        uint endQuizDate;\n        string question;\n        string goodChoice;\n        string choice2;\n        string choice3;\n        uint uploadTime;\n        address payable author;\n    }\n\n    event QuizSend(\n        uint idQuiz,\n        uint endQuizDate,\n        string question,\n        string goodChoice,\n        string choice2,\n        string choice3,\n        uint uploadTime,\n        address payable author\n    );\n\n    event QuizCreated(\n        uint idQuiz,\n        uint endQuizDate,\n        string question,\n        string goodChoice,\n        string choice2,\n        string choice3,\n        uint uploadTime,\n        address payable author\n    );\n\n    constructor() public {\n        // save time\n        begin = block.timestamp;\n        owner=msg.sender;\n    }\n\n    modifier onlyOwner {\n        require(\n            msg.sender == owner,\n            \"Only owner can call this function.\"\n        );\n        _;\n    }\n    //create quiz\n    function createQuiz( uint _endQuizDate, string memory _question, string memory _goodChoice, string memory _choice2, string memory _choice3) public {\n        //make sure data exists\n        require(_endQuizDate > 0);\n        require(bytes(_question).length > 0);\n        require(bytes(_goodChoice).length > 0);\n        require(bytes(_choice2).length > 0);\n        require(bytes(_choice3).length > 0);\n\n        //make sur date is dont pass\n        require(_endQuizDate > block.timestamp, \"date antrieur a celle du jours\");\n\n        //make sure uploader address exists\n        require(msg.sender != address(0x0));\n\n        //increment quiz id\n        quizCount ++;\n\n        //add quiz to contract\n        quizzes[quizCount] = Quiz(quizCount,  _endQuizDate, _question, _goodChoice, _choice2, _choice3, block.timestamp, msg.sender);\n\n        //trigger an event\n        emit QuizCreated(quizCount,  _endQuizDate, _question, _goodChoice, _choice2, _choice3, block.timestamp, msg.sender);\n\n    }\n\n    modifier notAnswered() {\n        require(!answered[msg.sender], \"Vous avez dj rpondu\");\n        _;\n    }\n\n    modifier timeNotElapsed(uint _id) {\n        //make sur id is valid\n        require(_id > 0 && _id <= quizCount);\n        //fetch the quiz\n        Quiz memory _quiz = quizzes[_id];\n        require(block.timestamp - begin < _quiz.endQuizDate, \"Le questionnaire  n'est pas encore fini\");\n        _;\n    }\n\n    modifier timeElapsed(uint _id) {\n        //make sur id is valid\n        require(_id > 0 && _id <= quizCount);\n        //fetch the quiz\n        Quiz memory _quiz = quizzes[_id];\n        require(block.timestamp - begin >= _quiz.endQuizDate, \"Le questionnaire est fini\");\n        _;\n    }\n\n\n    function sendChoice(uint _id) public payable notAnswered() timeNotElapsed(_id) {\n        //make sur id is valid\n        require(_id > 0 && _id <= quizCount);\n        //fetch the quiz\n        Quiz memory _quiz = quizzes[_id];\n\n           address payable _author = _quiz.author;\n           address payable _participant = msg.sender;\n            //pay the author by sending them ether\n          // address(_author).transfer(msg.value);\n        address(_author).transfer(msg.value);\n            //update the quiz\n          quizzes[_id] = _quiz;\n            //trigger event\n           emit QuizSend(_id,  _quiz.endQuizDate, _quiz.question, _quiz.goodChoice, _quiz.choice2, _quiz.choice3, _quiz.uploadTime, _author);\n\n    }\n\n    function endQuiz(uint _id) public onlyOwner timeElapsed(_id) {\n        selfdestruct(owner);\n    }\n}\n\n//Donnes brut\n// question[1] = \"Prenom du crateur\";\n//   question[2] = \"Nom du crateur\";\n//  question[3] = \"Age du crateur\";\n\n//  answer[1] = [\"Ivane\", \"Dylan\", \"Marc\", \"Kevin\"];\n//  answer[2] = [\"Carluccio\", \"Santamaria\", \"Torres\", \"Rodrigues\"];\n//   answer[3] = [\"22\", \"23\", \"24\", \"25\"];\n\n//   goodChoice[2] = \"Dylan\";\n//   goodChoice[2] = \"Carluccio\";\n//   goodChoice[3] = \"25\";\n\n//Contrat v0.1\n//Recevoir les donnes(en brut pour la v0.1)\n//question et ses 4 reponses\n//nombre de participants\n//date limite\n//somme a gagner si tous correcte(owner met la somme fois nombre de particpants- 10.- et 5 participants = 50.-)\n//fee pour cree le contrat\n//Creation du quiz\n//Fin du temps si tous juste envoyer la recompense aux gagnants\n//Fin du quiz retour du cash a l owner\n\n\n\n\n\n\n",
  "sourcePath": "C:/Users/Dylan/Desktop/Dapp/QuizCoinV2/contracts/QuizCoin.sol",
  "compiler": {
    "name": "solc",
    "version": "0.5.16+commit.9c3226ce.Emscripten.clang"
  },
  "schemaVersion": "3.3.4",
  "updatedAt": "2021-03-22T12:37:31.919Z",
  "networkType": "ethereum",
  "devdoc": {
    "methods": {}
  },
  "userdoc": {
    "methods": {}
  }
}